{
  "_format": "hh3-artifact-1",
  "contractName": "SepoliaBridge",
  "sourceName": "contracts/SepoliaBridge.sol",
  "abi": [
    {
      "inputs": [
        {
          "internalType": "address",
          "name": "_bazigrToken",
          "type": "address"
        }
      ],
      "stateMutability": "nonpayable",
      "type": "constructor"
    },
    {
      "inputs": [],
      "name": "EnforcedPause",
      "type": "error"
    },
    {
      "inputs": [],
      "name": "ExpectedPause",
      "type": "error"
    },
    {
      "inputs": [
        {
          "internalType": "address",
          "name": "owner",
          "type": "address"
        }
      ],
      "name": "OwnableInvalidOwner",
      "type": "error"
    },
    {
      "inputs": [
        {
          "internalType": "address",
          "name": "account",
          "type": "address"
        }
      ],
      "name": "OwnableUnauthorizedAccount",
      "type": "error"
    },
    {
      "inputs": [],
      "name": "ReentrancyGuardReentrantCall",
      "type": "error"
    },
    {
      "inputs": [
        {
          "internalType": "address",
          "name": "token",
          "type": "address"
        }
      ],
      "name": "SafeERC20FailedOperation",
      "type": "error"
    },
    {
      "anonymous": false,
      "inputs": [
        {
          "indexed": false,
          "internalType": "bool",
          "name": "paused",
          "type": "bool"
        }
      ],
      "name": "BridgePaused",
      "type": "event"
    },
    {
      "anonymous": false,
      "inputs": [
        {
          "indexed": false,
          "internalType": "bool",
          "name": "unpaused",
          "type": "bool"
        }
      ],
      "name": "BridgeUnpaused",
      "type": "event"
    },
    {
      "anonymous": false,
      "inputs": [
        {
          "indexed": true,
          "internalType": "address",
          "name": "previousOwner",
          "type": "address"
        },
        {
          "indexed": true,
          "internalType": "address",
          "name": "newOwner",
          "type": "address"
        }
      ],
      "name": "OwnershipTransferred",
      "type": "event"
    },
    {
      "anonymous": false,
      "inputs": [
        {
          "indexed": false,
          "internalType": "address",
          "name": "account",
          "type": "address"
        }
      ],
      "name": "Paused",
      "type": "event"
    },
    {
      "anonymous": false,
      "inputs": [
        {
          "indexed": true,
          "internalType": "address",
          "name": "user",
          "type": "address"
        },
        {
          "indexed": false,
          "internalType": "uint256",
          "name": "amount",
          "type": "uint256"
        },
        {
          "indexed": false,
          "internalType": "uint256",
          "name": "nonce",
          "type": "uint256"
        },
        {
          "indexed": false,
          "internalType": "string",
          "name": "targetChain",
          "type": "string"
        }
      ],
      "name": "TokensLocked",
      "type": "event"
    },
    {
      "anonymous": false,
      "inputs": [
        {
          "indexed": true,
          "internalType": "address",
          "name": "user",
          "type": "address"
        },
        {
          "indexed": false,
          "internalType": "uint256",
          "name": "amount",
          "type": "uint256"
        },
        {
          "indexed": false,
          "internalType": "uint256",
          "name": "nonce",
          "type": "uint256"
        },
        {
          "indexed": false,
          "internalType": "string",
          "name": "sourceChain",
          "type": "string"
        }
      ],
      "name": "TokensUnlocked",
      "type": "event"
    },
    {
      "anonymous": false,
      "inputs": [
        {
          "indexed": false,
          "internalType": "address",
          "name": "account",
          "type": "address"
        }
      ],
      "name": "Unpaused",
      "type": "event"
    },
    {
      "inputs": [],
      "name": "SOURCE_CHAIN",
      "outputs": [
        {
          "internalType": "string",
          "name": "",
          "type": "string"
        }
      ],
      "stateMutability": "view",
      "type": "function"
    },
    {
      "inputs": [],
      "name": "TARGET_CHAIN",
      "outputs": [
        {
          "internalType": "string",
          "name": "",
          "type": "string"
        }
      ],
      "stateMutability": "view",
      "type": "function"
    },
    {
      "inputs": [],
      "name": "bazigrToken",
      "outputs": [
        {
          "internalType": "contract IERC20",
          "name": "",
          "type": "address"
        }
      ],
      "stateMutability": "view",
      "type": "function"
    },
    {
      "inputs": [
        {
          "internalType": "uint256",
          "name": "amount",
          "type": "uint256"
        }
      ],
      "name": "emergencyWithdraw",
      "outputs": [],
      "stateMutability": "nonpayable",
      "type": "function"
    },
    {
      "inputs": [],
      "name": "getBridgeBalance",
      "outputs": [
        {
          "internalType": "uint256",
          "name": "",
          "type": "uint256"
        }
      ],
      "stateMutability": "view",
      "type": "function"
    },
    {
      "inputs": [
        {
          "internalType": "address",
          "name": "user",
          "type": "address"
        }
      ],
      "name": "getUserNonce",
      "outputs": [
        {
          "internalType": "uint256",
          "name": "",
          "type": "uint256"
        }
      ],
      "stateMutability": "view",
      "type": "function"
    },
    {
      "inputs": [
        {
          "internalType": "uint256",
          "name": "nonceToCheck",
          "type": "uint256"
        }
      ],
      "name": "isNonceProcessed",
      "outputs": [
        {
          "internalType": "bool",
          "name": "",
          "type": "bool"
        }
      ],
      "stateMutability": "view",
      "type": "function"
    },
    {
      "inputs": [
        {
          "internalType": "uint256",
          "name": "amount",
          "type": "uint256"
        }
      ],
      "name": "lockTokens",
      "outputs": [],
      "stateMutability": "nonpayable",
      "type": "function"
    },
    {
      "inputs": [],
      "name": "nonce",
      "outputs": [
        {
          "internalType": "uint256",
          "name": "",
          "type": "uint256"
        }
      ],
      "stateMutability": "view",
      "type": "function"
    },
    {
      "inputs": [],
      "name": "owner",
      "outputs": [
        {
          "internalType": "address",
          "name": "",
          "type": "address"
        }
      ],
      "stateMutability": "view",
      "type": "function"
    },
    {
      "inputs": [],
      "name": "pauseBridge",
      "outputs": [],
      "stateMutability": "nonpayable",
      "type": "function"
    },
    {
      "inputs": [],
      "name": "paused",
      "outputs": [
        {
          "internalType": "bool",
          "name": "",
          "type": "bool"
        }
      ],
      "stateMutability": "view",
      "type": "function"
    },
    {
      "inputs": [
        {
          "internalType": "uint256",
          "name": "",
          "type": "uint256"
        }
      ],
      "name": "processedNonces",
      "outputs": [
        {
          "internalType": "bool",
          "name": "",
          "type": "bool"
        }
      ],
      "stateMutability": "view",
      "type": "function"
    },
    {
      "inputs": [],
      "name": "renounceOwnership",
      "outputs": [],
      "stateMutability": "nonpayable",
      "type": "function"
    },
    {
      "inputs": [
        {
          "internalType": "uint256",
          "name": "amount",
          "type": "uint256"
        },
        {
          "internalType": "uint256",
          "name": "nonceToProcess",
          "type": "uint256"
        }
      ],
      "name": "selfUnlockTokens",
      "outputs": [],
      "stateMutability": "nonpayable",
      "type": "function"
    },
    {
      "inputs": [
        {
          "internalType": "address",
          "name": "newOwner",
          "type": "address"
        }
      ],
      "name": "transferOwnership",
      "outputs": [],
      "stateMutability": "nonpayable",
      "type": "function"
    },
    {
      "inputs": [
        {
          "internalType": "address",
          "name": "user",
          "type": "address"
        },
        {
          "internalType": "uint256",
          "name": "amount",
          "type": "uint256"
        },
        {
          "internalType": "uint256",
          "name": "nonceToProcess",
          "type": "uint256"
        }
      ],
      "name": "unlockTokens",
      "outputs": [],
      "stateMutability": "nonpayable",
      "type": "function"
    },
    {
      "inputs": [],
      "name": "unpauseBridge",
      "outputs": [],
      "stateMutability": "nonpayable",
      "type": "function"
    },
    {
      "inputs": [
        {
          "internalType": "address",
          "name": "",
          "type": "address"
        }
      ],
      "name": "userNonces",
      "outputs": [
        {
          "internalType": "uint256",
          "name": "",
          "type": "uint256"
        }
      ],
      "stateMutability": "view",
      "type": "function"
    }
  ],
  "bytecode": "0x60a060405234801561001057600080fd5b50604051611ff6380380611ff68339818101604052810190610032919061021d565b33600073ffffffffffffffffffffffffffffffffffffffff168173ffffffffffffffffffffffffffffffffffffffff16036100a55760006040517f1e4fbdf700000000000000000000000000000000000000000000000000000000815260040161009c9190610259565b60405180910390fd5b6100b4816100f660201b60201c565b50600180819055508073ffffffffffffffffffffffffffffffffffffffff1660808173ffffffffffffffffffffffffffffffffffffffff168152505050610274565b60008060009054906101000a900473ffffffffffffffffffffffffffffffffffffffff169050816000806101000a81548173ffffffffffffffffffffffffffffffffffffffff021916908373ffffffffffffffffffffffffffffffffffffffff1602179055508173ffffffffffffffffffffffffffffffffffffffff168173ffffffffffffffffffffffffffffffffffffffff167f8be0079c531659141344cd1fd0a4f28419497f9722a3daafe3b4186f6b6457e060405160405180910390a35050565b600080fd5b600073ffffffffffffffffffffffffffffffffffffffff82169050919050565b60006101ea826101bf565b9050919050565b6101fa816101df565b811461020557600080fd5b50565b600081519050610217816101f1565b92915050565b600060208284031215610233576102326101ba565b5b600061024184828501610208565b91505092915050565b610253816101df565b82525050565b600060208201905061026e600083018461024a565b92915050565b608051611d216102d5600039600081816104310152818161053d0152818161061e01528181610706015281816107d9015281816108510152818161092d01528181610a1001528181610dd701528181610ee30152610fbf0152611d216000f3fe608060405234801561001057600080fd5b50600436106101215760003560e01c80637dd0480f116100ad578063affed0e011610071578063affed0e0146102d0578063cd3877df146102ee578063f0bc86de1461030a578063f2fde38b14610328578063f81d82c61461034457610121565b80637dd0480f146102505780638da5cb5b1461025a57806391dae51914610278578063a0609ea5146102a8578063a82f143c146102c657610121565b80636834e3a8116100f45780636834e3a8146101ac5780636b3f4b3f146101dc5780636bc9da931461020c5780636e27d8891461022a578063715018a61461024657610121565b80632f7801f41461012657806350936c68146101565780635312ea8e146101725780635c975abb1461018e575b600080fd5b610140600480360381019061013b919061160a565b610362565b60405161014d9190611650565b60405180910390f35b610170600480360381019061016b9190611697565b61037a565b005b61018c600480360381019061018791906116d7565b610614565b005b61019661074d565b6040516101a3919061171f565b60405180910390f35b6101c660048036038101906101c1919061160a565b610764565b6040516101d39190611650565b60405180910390f35b6101f660048036038101906101f191906116d7565b6107ad565b604051610203919061171f565b60405180910390f35b6102146107d7565b6040516102219190611799565b60405180910390f35b610244600480360381019061023f91906116d7565b6107fb565b005b61024e610b81565b005b610258610b95565b005b610262610bdf565b60405161026f91906117c3565b60405180910390f35b610292600480360381019061028d91906116d7565b610c08565b60405161029f919061171f565b60405180910390f35b6102b0610c28565b6040516102bd919061186e565b60405180910390f35b6102ce610c61565b005b6102d8610cab565b6040516102e59190611650565b60405180910390f35b61030860048036038101906103039190611890565b610cb1565b005b610312610fbb565b60405161031f9190611650565b60405180910390f35b610342600480360381019061033d919061160a565b61105c565b005b61034c6110e2565b604051610359919061186e565b60405180910390f35b60056020528060005260406000206000915090505481565b61038261111b565b61038a611161565b600082116103cd576040517f08c379a00000000000000000000000000000000000000000000000000000000081526004016103c49061192f565b60405180910390fd5b6004600082815260200190815260200160002060009054906101000a900460ff161561042e576040517f08c379a00000000000000000000000000000000000000000000000000000000081526004016104259061199b565b60405180910390fd5b817f000000000000000000000000000000000000000000000000000000000000000073ffffffffffffffffffffffffffffffffffffffff166370a08231306040518263ffffffff1660e01b815260040161048891906117c3565b602060405180830381865afa1580156104a5573d6000803e3d6000fd5b505050506040513d601f19601f820116820180604052508101906104c991906119d0565b101561050a576040517f08c379a000000000000000000000000000000000000000000000000000000000815260040161050190611a49565b60405180910390fd5b60016004600083815260200190815260200160002060006101000a81548160ff02191690831515021790555061058133837f000000000000000000000000000000000000000000000000000000000000000073ffffffffffffffffffffffffffffffffffffffff166111a29092919063ffffffff16565b3373ffffffffffffffffffffffffffffffffffffffff167f636b0c58084edc6db890fe8ce0ab0fb41e189d659a8deb5e0dfb438e9cce3c0583836040518060400160405280600781526020017f5345504f4c49410000000000000000000000000000000000000000000000000081525060405161060093929190611a69565b60405180910390a2610610611221565b5050565b61061c61122a565b7f000000000000000000000000000000000000000000000000000000000000000073ffffffffffffffffffffffffffffffffffffffff166370a08231306040518263ffffffff1660e01b815260040161067591906117c3565b602060405180830381865afa158015610692573d6000803e3d6000fd5b505050506040513d601f19601f820116820180604052508101906106b691906119d0565b8111156106f8576040517f08c379a00000000000000000000000000000000000000000000000000000000081526004016106ef90611af3565b60405180910390fd5b61074a610703610bdf565b827f000000000000000000000000000000000000000000000000000000000000000073ffffffffffffffffffffffffffffffffffffffff166111a29092919063ffffffff16565b50565b6000600260009054906101000a900460ff16905090565b6000600560008373ffffffffffffffffffffffffffffffffffffffff1673ffffffffffffffffffffffffffffffffffffffff168152602001908152602001600020549050919050565b60006004600083815260200190815260200160002060009054906101000a900460ff169050919050565b7f000000000000000000000000000000000000000000000000000000000000000081565b61080361111b565b61080b611161565b6000811161084e576040517f08c379a00000000000000000000000000000000000000000000000000000000081526004016108459061192f565b60405180910390fd5b807f000000000000000000000000000000000000000000000000000000000000000073ffffffffffffffffffffffffffffffffffffffff166370a08231336040518263ffffffff1660e01b81526004016108a891906117c3565b602060405180830381865afa1580156108c5573d6000803e3d6000fd5b505050506040513d601f19601f820116820180604052508101906108e991906119d0565b101561092a576040517f08c379a000000000000000000000000000000000000000000000000000000000815260040161092190611af3565b60405180910390fd5b807f000000000000000000000000000000000000000000000000000000000000000073ffffffffffffffffffffffffffffffffffffffff1663dd62ed3e33306040518363ffffffff1660e01b8152600401610986929190611b13565b602060405180830381865afa1580156109a3573d6000803e3d6000fd5b505050506040513d601f19601f820116820180604052508101906109c791906119d0565b1015610a08576040517f08c379a00000000000000000000000000000000000000000000000000000000081526004016109ff90611b88565b60405180910390fd5b610a553330837f000000000000000000000000000000000000000000000000000000000000000073ffffffffffffffffffffffffffffffffffffffff166112b1909392919063ffffffff16565b600560003373ffffffffffffffffffffffffffffffffffffffff1673ffffffffffffffffffffffffffffffffffffffff1681526020019081526020016000206000815480929190610aa590611bd7565b91905055506000600560003373ffffffffffffffffffffffffffffffffffffffff1673ffffffffffffffffffffffffffffffffffffffff1681526020019081526020016000205490503373ffffffffffffffffffffffffffffffffffffffff167fb0733fef438eb2f8d800384da60993c08e969f4a8bf1580b0e19a701e8cc909c83836040518060400160405280600381526020017f5532550000000000000000000000000000000000000000000000000000000000815250604051610b6d93929190611a69565b60405180910390a250610b7e611221565b50565b610b8961122a565b610b936000611333565b565b610b9d61122a565b610ba56113f7565b7f7109bb8b9c800f0b1e082cdd408e79256a83c41ca094c286d4e199ecc95ec8e26001604051610bd5919061171f565b60405180910390a1565b60008060009054906101000a900473ffffffffffffffffffffffffffffffffffffffff16905090565b60046020528060005260406000206000915054906101000a900460ff1681565b6040518060400160405280600781526020017f5345504f4c49410000000000000000000000000000000000000000000000000081525081565b610c6961122a565b610c7161145a565b7fab9aca70685e9ac6b4bf0cf8aaaf4f577fef06308fb87e9d299949aa72365ec96000604051610ca1919061171f565b60405180910390a1565b60035481565b610cb961111b565b610cc1611161565b600073ffffffffffffffffffffffffffffffffffffffff168373ffffffffffffffffffffffffffffffffffffffff1603610d30576040517f08c379a0000000000000000000000000000000000000000000000000000000008152600401610d2790611c6b565b60405180910390fd5b60008211610d73576040517f08c379a0000000000000000000000000000000000000000000000000000000008152600401610d6a9061192f565b60405180910390fd5b6004600082815260200190815260200160002060009054906101000a900460ff1615610dd4576040517f08c379a0000000000000000000000000000000000000000000000000000000008152600401610dcb9061199b565b60405180910390fd5b817f000000000000000000000000000000000000000000000000000000000000000073ffffffffffffffffffffffffffffffffffffffff166370a08231306040518263ffffffff1660e01b8152600401610e2e91906117c3565b602060405180830381865afa158015610e4b573d6000803e3d6000fd5b505050506040513d601f19601f82011682018060405250810190610e6f91906119d0565b1015610eb0576040517f08c379a0000000000000000000000000000000000000000000000000000000008152600401610ea790611a49565b60405180910390fd5b60016004600083815260200190815260200160002060006101000a81548160ff021916908315150217905550610f2783837f000000000000000000000000000000000000000000000000000000000000000073ffffffffffffffffffffffffffffffffffffffff166111a29092919063ffffffff16565b8273ffffffffffffffffffffffffffffffffffffffff167f636b0c58084edc6db890fe8ce0ab0fb41e189d659a8deb5e0dfb438e9cce3c0583836040518060400160405280600781526020017f5345504f4c494100000000000000000000000000000000000000000000000000815250604051610fa693929190611a69565b60405180910390a2610fb6611221565b505050565b60007f000000000000000000000000000000000000000000000000000000000000000073ffffffffffffffffffffffffffffffffffffffff166370a08231306040518263ffffffff1660e01b815260040161101691906117c3565b602060405180830381865afa158015611033573d6000803e3d6000fd5b505050506040513d601f19601f8201168201806040525081019061105791906119d0565b905090565b61106461122a565b600073ffffffffffffffffffffffffffffffffffffffff168173ffffffffffffffffffffffffffffffffffffffff16036110d65760006040517f1e4fbdf70000000000000000000000000000000000000000000000000000000081526004016110cd91906117c3565b60405180910390fd5b6110df81611333565b50565b6040518060400160405280600381526020017f553255000000000000000000000000000000000000000000000000000000000081525081565b600260015403611157576040517f3ee5aeb500000000000000000000000000000000000000000000000000000000815260040160405180910390fd5b6002600181905550565b61116961074d565b156111a0576040517fd93c066500000000000000000000000000000000000000000000000000000000815260040160405180910390fd5b565b61121c838473ffffffffffffffffffffffffffffffffffffffff1663a9059cbb85856040516024016111d5929190611c8b565b604051602081830303815290604052915060e01b6020820180517bffffffffffffffffffffffffffffffffffffffffffffffffffffffff83818316178352505050506114bd565b505050565b60018081905550565b61123261155f565b73ffffffffffffffffffffffffffffffffffffffff16611250610bdf565b73ffffffffffffffffffffffffffffffffffffffff16146112af5761127361155f565b6040517f118cdaa70000000000000000000000000000000000000000000000000000000081526004016112a691906117c3565b60405180910390fd5b565b61132d848573ffffffffffffffffffffffffffffffffffffffff166323b872dd8686866040516024016112e693929190611cb4565b604051602081830303815290604052915060e01b6020820180517bffffffffffffffffffffffffffffffffffffffffffffffffffffffff83818316178352505050506114bd565b50505050565b60008060009054906101000a900473ffffffffffffffffffffffffffffffffffffffff169050816000806101000a81548173ffffffffffffffffffffffffffffffffffffffff021916908373ffffffffffffffffffffffffffffffffffffffff1602179055508173ffffffffffffffffffffffffffffffffffffffff168173ffffffffffffffffffffffffffffffffffffffff167f8be0079c531659141344cd1fd0a4f28419497f9722a3daafe3b4186f6b6457e060405160405180910390a35050565b6113ff611161565b6001600260006101000a81548160ff0219169083151502179055507f62e78cea01bee320cd4e420270b5ea74000d11b0c9f74754ebdbfc544b05a25861144361155f565b60405161145091906117c3565b60405180910390a1565b611462611567565b6000600260006101000a81548160ff0219169083151502179055507f5db9ee0a495bf2e6ff9c91a7834c1ba4fdd244a5e8aa4e537bd38aeae4b073aa6114a661155f565b6040516114b391906117c3565b60405180910390a1565b600080602060008451602086016000885af1806114e0576040513d6000823e3d81fd5b3d9250600051915050600082146114fb576001811415611517565b60008473ffffffffffffffffffffffffffffffffffffffff163b145b1561155957836040517f5274afe700000000000000000000000000000000000000000000000000000000815260040161155091906117c3565b60405180910390fd5b50505050565b600033905090565b61156f61074d565b6115a5576040517f8dfc202b00000000000000000000000000000000000000000000000000000000815260040160405180910390fd5b565b600080fd5b600073ffffffffffffffffffffffffffffffffffffffff82169050919050565b60006115d7826115ac565b9050919050565b6115e7816115cc565b81146115f257600080fd5b50565b600081359050611604816115de565b92915050565b6000602082840312156116205761161f6115a7565b5b600061162e848285016115f5565b91505092915050565b6000819050919050565b61164a81611637565b82525050565b60006020820190506116656000830184611641565b92915050565b61167481611637565b811461167f57600080fd5b50565b6000813590506116918161166b565b92915050565b600080604083850312156116ae576116ad6115a7565b5b60006116bc85828601611682565b92505060206116cd85828601611682565b9150509250929050565b6000602082840312156116ed576116ec6115a7565b5b60006116fb84828501611682565b91505092915050565b60008115159050919050565b61171981611704565b82525050565b60006020820190506117346000830184611710565b92915050565b6000819050919050565b600061175f61175a611755846115ac565b61173a565b6115ac565b9050919050565b600061177182611744565b9050919050565b600061178382611766565b9050919050565b61179381611778565b82525050565b60006020820190506117ae600083018461178a565b92915050565b6117bd816115cc565b82525050565b60006020820190506117d860008301846117b4565b92915050565b600081519050919050565b600082825260208201905092915050565b60005b838110156118185780820151818401526020810190506117fd565b60008484015250505050565b6000601f19601f8301169050919050565b6000611840826117de565b61184a81856117e9565b935061185a8185602086016117fa565b61186381611824565b840191505092915050565b600060208201905081810360008301526118888184611835565b905092915050565b6000806000606084860312156118a9576118a86115a7565b5b60006118b7868287016115f5565b93505060206118c886828701611682565b92505060406118d986828701611682565b9150509250925092565b7f416d6f756e74206d7573742062652067726561746572207468616e2030000000600082015250565b6000611919601d836117e9565b9150611924826118e3565b602082019050919050565b600060208201905081810360008301526119488161190c565b9050919050565b7f4e6f6e636520616c72656164792070726f636573736564000000000000000000600082015250565b60006119856017836117e9565b91506119908261194f565b602082019050919050565b600060208201905081810360008301526119b481611978565b9050919050565b6000815190506119ca8161166b565b92915050565b6000602082840312156119e6576119e56115a7565b5b60006119f4848285016119bb565b91505092915050565b7f496e73756666696369656e74206272696467652062616c616e63650000000000600082015250565b6000611a33601b836117e9565b9150611a3e826119fd565b602082019050919050565b60006020820190508181036000830152611a6281611a26565b9050919050565b6000606082019050611a7e6000830186611641565b611a8b6020830185611641565b8181036040830152611a9d8184611835565b9050949350505050565b7f496e73756666696369656e742062616c616e6365000000000000000000000000600082015250565b6000611add6014836117e9565b9150611ae882611aa7565b602082019050919050565b60006020820190508181036000830152611b0c81611ad0565b9050919050565b6000604082019050611b2860008301856117b4565b611b3560208301846117b4565b9392505050565b7f496e73756666696369656e7420616c6c6f77616e636500000000000000000000600082015250565b6000611b726016836117e9565b9150611b7d82611b3c565b602082019050919050565b60006020820190508181036000830152611ba181611b65565b9050919050565b7f4e487b7100000000000000000000000000000000000000000000000000000000600052601160045260246000fd5b6000611be282611637565b91507fffffffffffffffffffffffffffffffffffffffffffffffffffffffffffffffff8203611c1457611c13611ba8565b5b600182019050919050565b7f496e76616c696420757365722061646472657373000000000000000000000000600082015250565b6000611c556014836117e9565b9150611c6082611c1f565b602082019050919050565b60006020820190508181036000830152611c8481611c48565b9050919050565b6000604082019050611ca060008301856117b4565b611cad6020830184611641565b9392505050565b6000606082019050611cc960008301866117b4565b611cd660208301856117b4565b611ce36040830184611641565b94935050505056fea2646970667358221220369a772f9e38dc2d3a522b1c7e851abf91407ba5eee407e103173ca242e6b77a64736f6c634300081c0033",
  "linkReferences": {},
  "deployedLinkReferences": {},
  "immutableReferences": {
    "1046": [
      {
        "length": 32,
        "start": 1073
      },
      {
        "length": 32,
        "start": 1341
      },
      {
        "length": 32,
        "start": 1566
      },
      {
        "length": 32,
        "start": 1798
      },
      {
        "length": 32,
        "start": 2009
      },
      {
        "length": 32,
        "start": 2129
      },
      {
        "length": 32,
        "start": 2349
      },
      {
        "length": 32,
        "start": 2576
      },
      {
        "length": 32,
        "start": 3543
      },
      {
        "length": 32,
        "start": 3811
      },
      {
        "length": 32,
        "start": 4031
      }
    ]
  },
  "inputSourceName": "project/contracts/SepoliaBridge.sol",
  "buildInfoId": "solc-0_8_28-078586d28b11ebb5258865d5cd1b1132dd9ca675"
}