{
  "_format": "hh3-artifact-1",
  "contractName": "FixedRateSwap",
  "sourceName": "contracts/Swap.sol",
  "abi": [
    {
      "inputs": [
        {
          "internalType": "address",
          "name": "_bazToken",
          "type": "address"
        },
        {
          "internalType": "address",
          "name": "initialOwner",
          "type": "address"
        }
      ],
      "stateMutability": "nonpayable",
      "type": "constructor"
    },
    {
      "inputs": [
        {
          "internalType": "address",
          "name": "owner",
          "type": "address"
        }
      ],
      "name": "OwnableInvalidOwner",
      "type": "error"
    },
    {
      "inputs": [
        {
          "internalType": "address",
          "name": "account",
          "type": "address"
        }
      ],
      "name": "OwnableUnauthorizedAccount",
      "type": "error"
    },
    {
      "inputs": [],
      "name": "ReentrancyGuardReentrantCall",
      "type": "error"
    },
    {
      "inputs": [
        {
          "internalType": "address",
          "name": "token",
          "type": "address"
        }
      ],
      "name": "SafeERC20FailedOperation",
      "type": "error"
    },
    {
      "anonymous": false,
      "inputs": [
        {
          "indexed": true,
          "internalType": "address",
          "name": "previousOwner",
          "type": "address"
        },
        {
          "indexed": true,
          "internalType": "address",
          "name": "newOwner",
          "type": "address"
        }
      ],
      "name": "OwnershipTransferred",
      "type": "event"
    },
    {
      "anonymous": false,
      "inputs": [
        {
          "indexed": true,
          "internalType": "address",
          "name": "to",
          "type": "address"
        },
        {
          "indexed": false,
          "internalType": "address",
          "name": "token",
          "type": "address"
        },
        {
          "indexed": false,
          "internalType": "uint256",
          "name": "amount",
          "type": "uint256"
        }
      ],
      "name": "Rescue",
      "type": "event"
    },
    {
      "anonymous": false,
      "inputs": [
        {
          "indexed": true,
          "internalType": "address",
          "name": "user",
          "type": "address"
        },
        {
          "indexed": false,
          "internalType": "uint256",
          "name": "bazIn",
          "type": "uint256"
        },
        {
          "indexed": false,
          "internalType": "uint256",
          "name": "u2uOut",
          "type": "uint256"
        }
      ],
      "name": "SwapBazForNative",
      "type": "event"
    },
    {
      "anonymous": false,
      "inputs": [
        {
          "indexed": true,
          "internalType": "address",
          "name": "user",
          "type": "address"
        },
        {
          "indexed": false,
          "internalType": "uint256",
          "name": "u2uIn",
          "type": "uint256"
        },
        {
          "indexed": false,
          "internalType": "uint256",
          "name": "bazOut",
          "type": "uint256"
        }
      ],
      "name": "SwapNativeForBaz",
      "type": "event"
    },
    {
      "inputs": [],
      "name": "RATE",
      "outputs": [
        {
          "internalType": "uint256",
          "name": "",
          "type": "uint256"
        }
      ],
      "stateMutability": "view",
      "type": "function"
    },
    {
      "inputs": [],
      "name": "bazToken",
      "outputs": [
        {
          "internalType": "contract IERC20",
          "name": "",
          "type": "address"
        }
      ],
      "stateMutability": "view",
      "type": "function"
    },
    {
      "inputs": [],
      "name": "owner",
      "outputs": [
        {
          "internalType": "address",
          "name": "",
          "type": "address"
        }
      ],
      "stateMutability": "view",
      "type": "function"
    },
    {
      "inputs": [],
      "name": "renounceOwnership",
      "outputs": [],
      "stateMutability": "nonpayable",
      "type": "function"
    },
    {
      "inputs": [
        {
          "internalType": "address",
          "name": "to",
          "type": "address"
        },
        {
          "internalType": "address",
          "name": "token",
          "type": "address"
        },
        {
          "internalType": "uint256",
          "name": "amount",
          "type": "uint256"
        }
      ],
      "name": "rescue",
      "outputs": [],
      "stateMutability": "nonpayable",
      "type": "function"
    },
    {
      "inputs": [
        {
          "internalType": "uint256",
          "name": "bazIn",
          "type": "uint256"
        }
      ],
      "name": "swapBazForNative",
      "outputs": [],
      "stateMutability": "nonpayable",
      "type": "function"
    },
    {
      "inputs": [],
      "name": "swapNativeForBaz",
      "outputs": [],
      "stateMutability": "payable",
      "type": "function"
    },
    {
      "inputs": [
        {
          "internalType": "address",
          "name": "newOwner",
          "type": "address"
        }
      ],
      "name": "transferOwnership",
      "outputs": [],
      "stateMutability": "nonpayable",
      "type": "function"
    },
    {
      "stateMutability": "payable",
      "type": "receive"
    }
  ],
  "bytecode": "0x60a060405234801561001057600080fd5b506040516117c23803806117c28339818101604052810190610032919061028d565b80600073ffffffffffffffffffffffffffffffffffffffff168173ffffffffffffffffffffffffffffffffffffffff16036100a55760006040517f1e4fbdf700000000000000000000000000000000000000000000000000000000815260040161009c91906102dc565b60405180910390fd5b6100b48161016660201b60201c565b5060018081905550600073ffffffffffffffffffffffffffffffffffffffff168273ffffffffffffffffffffffffffffffffffffffff160361012b576040517f08c379a000000000000000000000000000000000000000000000000000000000815260040161012290610354565b60405180910390fd5b8173ffffffffffffffffffffffffffffffffffffffff1660808173ffffffffffffffffffffffffffffffffffffffff16815250505050610374565b60008060009054906101000a900473ffffffffffffffffffffffffffffffffffffffff169050816000806101000a81548173ffffffffffffffffffffffffffffffffffffffff021916908373ffffffffffffffffffffffffffffffffffffffff1602179055508173ffffffffffffffffffffffffffffffffffffffff168173ffffffffffffffffffffffffffffffffffffffff167f8be0079c531659141344cd1fd0a4f28419497f9722a3daafe3b4186f6b6457e060405160405180910390a35050565b600080fd5b600073ffffffffffffffffffffffffffffffffffffffff82169050919050565b600061025a8261022f565b9050919050565b61026a8161024f565b811461027557600080fd5b50565b60008151905061028781610261565b92915050565b600080604083850312156102a4576102a361022a565b5b60006102b285828601610278565b92505060206102c385828601610278565b9150509250929050565b6102d68161024f565b82525050565b60006020820190506102f160008301846102cd565b92915050565b600082825260208201905092915050565b7f62617a20746f6b656e206973207a65726f000000000000000000000000000000600082015250565b600061033e6011836102f7565b915061034982610308565b602082019050919050565b6000602082019050818103600083015261036d81610331565b9050919050565b60805161141e6103a4600039600081816104c4015281816106ae0152818161078e015261082f015261141e6000f3fe60806040526004361061007f5760003560e01c80638da5cb5b1161004e5780638da5cb5b1461011f578063b33134e91461014a578063e2cd455c14610154578063f2fde38b1461017f57610086565b806320ff430b1461008b578063664e9704146100b45780636a6da86a146100df578063715018a61461010857610086565b3661008657005b600080fd5b34801561009757600080fd5b506100b260048036038101906100ad9190610cb5565b6101a8565b005b3480156100c057600080fd5b506100c9610418565b6040516100d69190610d17565b60405180910390f35b3480156100eb57600080fd5b5061010660048036038101906101019190610d32565b61041d565b005b34801561011457600080fd5b5061011d610612565b005b34801561012b57600080fd5b50610134610626565b6040516101419190610d6e565b60405180910390f35b61015261064f565b005b34801561016057600080fd5b5061016961082d565b6040516101769190610de8565b60405180910390f35b34801561018b57600080fd5b506101a660048036038101906101a19190610e03565b610851565b005b6101b06108d7565b600073ffffffffffffffffffffffffffffffffffffffff168373ffffffffffffffffffffffffffffffffffffffff160361021f576040517f08c379a000000000000000000000000000000000000000000000000000000000815260040161021690610e8d565b60405180910390fd5b600073ffffffffffffffffffffffffffffffffffffffff168273ffffffffffffffffffffffffffffffffffffffff16036103055760008373ffffffffffffffffffffffffffffffffffffffff168260405161027990610ede565b60006040518083038185875af1925050503d80600081146102b6576040519150601f19603f3d011682016040523d82523d6000602084013e6102bb565b606091505b50509050806102ff576040517f08c379a00000000000000000000000000000000000000000000000000000000081526004016102f690610f3f565b60405180910390fd5b506103c3565b8173ffffffffffffffffffffffffffffffffffffffff1663a9059cbb84836040518363ffffffff1660e01b8152600401610340929190610f5f565b6020604051808303816000875af115801561035f573d6000803e3d6000fd5b505050506040513d601f19601f820116820180604052508101906103839190610fc0565b6103c2576040517f08c379a00000000000000000000000000000000000000000000000000000000081526004016103b990611039565b60405180910390fd5b5b8273ffffffffffffffffffffffffffffffffffffffff167fe01920728668d89f092ef9cb92036bad90964bb622eec508d2c3ffe1d582efb2838360405161040b929190610f5f565b60405180910390a2505050565b601481565b61042561095e565b60008111610468576040517f08c379a000000000000000000000000000000000000000000000000000000000815260040161045f906110a5565b60405180910390fd5b60006014826104779190611123565b9050804710156104bc576040517f08c379a00000000000000000000000000000000000000000000000000000000081526004016104b3906111a0565b60405180910390fd5b6105093330847f000000000000000000000000000000000000000000000000000000000000000073ffffffffffffffffffffffffffffffffffffffff166109a4909392919063ffffffff16565b60003373ffffffffffffffffffffffffffffffffffffffff168260405161052f90610ede565b60006040518083038185875af1925050503d806000811461056c576040519150601f19603f3d011682016040523d82523d6000602084013e610571565b606091505b50509050806105b5576040517f08c379a00000000000000000000000000000000000000000000000000000000081526004016105ac9061120c565b60405180910390fd5b3373ffffffffffffffffffffffffffffffffffffffff167f8acda04b59f835786eb1eadd294ede9f93a8f0e47963c72d993bffb4ac3fe48f84846040516105fd92919061122c565b60405180910390a2505061060f610a26565b50565b61061a6108d7565b6106246000610a2f565b565b60008060009054906101000a900473ffffffffffffffffffffffffffffffffffffffff16905090565b61065761095e565b6000341161069a576040517f08c379a0000000000000000000000000000000000000000000000000000000008152600401610691906112a1565b60405180910390fd5b60006014346106a991906112c1565b9050807f000000000000000000000000000000000000000000000000000000000000000073ffffffffffffffffffffffffffffffffffffffff166370a08231306040518263ffffffff1660e01b81526004016107059190610d6e565b602060405180830381865afa158015610722573d6000803e3d6000fd5b505050506040513d601f19601f820116820180604052508101906107469190611318565b1015610787576040517f08c379a000000000000000000000000000000000000000000000000000000000815260040161077e90611391565b60405180910390fd5b6107d233827f000000000000000000000000000000000000000000000000000000000000000073ffffffffffffffffffffffffffffffffffffffff16610af39092919063ffffffff16565b3373ffffffffffffffffffffffffffffffffffffffff167f5cb277252ec60513b4686fb16ae0247be7d7fe2c15e1a7c33e51c2c1fcc07e0c348360405161081a92919061122c565b60405180910390a25061082b610a26565b565b7f000000000000000000000000000000000000000000000000000000000000000081565b6108596108d7565b600073ffffffffffffffffffffffffffffffffffffffff168173ffffffffffffffffffffffffffffffffffffffff16036108cb5760006040517f1e4fbdf70000000000000000000000000000000000000000000000000000000081526004016108c29190610d6e565b60405180910390fd5b6108d481610a2f565b50565b6108df610b72565b73ffffffffffffffffffffffffffffffffffffffff166108fd610626565b73ffffffffffffffffffffffffffffffffffffffff161461095c57610920610b72565b6040517f118cdaa70000000000000000000000000000000000000000000000000000000081526004016109539190610d6e565b60405180910390fd5b565b60026001540361099a576040517f3ee5aeb500000000000000000000000000000000000000000000000000000000815260040160405180910390fd5b6002600181905550565b610a20848573ffffffffffffffffffffffffffffffffffffffff166323b872dd8686866040516024016109d9939291906113b1565b604051602081830303815290604052915060e01b6020820180517bffffffffffffffffffffffffffffffffffffffffffffffffffffffff8381831617835250505050610b7a565b50505050565b60018081905550565b60008060009054906101000a900473ffffffffffffffffffffffffffffffffffffffff169050816000806101000a81548173ffffffffffffffffffffffffffffffffffffffff021916908373ffffffffffffffffffffffffffffffffffffffff1602179055508173ffffffffffffffffffffffffffffffffffffffff168173ffffffffffffffffffffffffffffffffffffffff167f8be0079c531659141344cd1fd0a4f28419497f9722a3daafe3b4186f6b6457e060405160405180910390a35050565b610b6d838473ffffffffffffffffffffffffffffffffffffffff1663a9059cbb8585604051602401610b26929190610f5f565b604051602081830303815290604052915060e01b6020820180517bffffffffffffffffffffffffffffffffffffffffffffffffffffffff8381831617835250505050610b7a565b505050565b600033905090565b600080602060008451602086016000885af180610b9d576040513d6000823e3d81fd5b3d925060005191505060008214610bb8576001811415610bd4565b60008473ffffffffffffffffffffffffffffffffffffffff163b145b15610c1657836040517f5274afe7000000000000000000000000000000000000000000000000000000008152600401610c0d9190610d6e565b60405180910390fd5b50505050565b600080fd5b600073ffffffffffffffffffffffffffffffffffffffff82169050919050565b6000610c4c82610c21565b9050919050565b610c5c81610c41565b8114610c6757600080fd5b50565b600081359050610c7981610c53565b92915050565b6000819050919050565b610c9281610c7f565b8114610c9d57600080fd5b50565b600081359050610caf81610c89565b92915050565b600080600060608486031215610cce57610ccd610c1c565b5b6000610cdc86828701610c6a565b9350506020610ced86828701610c6a565b9250506040610cfe86828701610ca0565b9150509250925092565b610d1181610c7f565b82525050565b6000602082019050610d2c6000830184610d08565b92915050565b600060208284031215610d4857610d47610c1c565b5b6000610d5684828501610ca0565b91505092915050565b610d6881610c41565b82525050565b6000602082019050610d836000830184610d5f565b92915050565b6000819050919050565b6000610dae610da9610da484610c21565b610d89565b610c21565b9050919050565b6000610dc082610d93565b9050919050565b6000610dd282610db5565b9050919050565b610de281610dc7565b82525050565b6000602082019050610dfd6000830184610dd9565b92915050565b600060208284031215610e1957610e18610c1c565b5b6000610e2784828501610c6a565b91505092915050565b600082825260208201905092915050565b7f746f3d3000000000000000000000000000000000000000000000000000000000600082015250565b6000610e77600483610e30565b9150610e8282610e41565b602082019050919050565b60006020820190508181036000830152610ea681610e6a565b9050919050565b600081905092915050565b50565b6000610ec8600083610ead565b9150610ed382610eb8565b600082019050919050565b6000610ee982610ebb565b9150819050919050565b7f6e617469766520726573637565206661696c6564000000000000000000000000600082015250565b6000610f29601483610e30565b9150610f3482610ef3565b602082019050919050565b60006020820190508181036000830152610f5881610f1c565b9050919050565b6000604082019050610f746000830185610d5f565b610f816020830184610d08565b9392505050565b60008115159050919050565b610f9d81610f88565b8114610fa857600080fd5b50565b600081519050610fba81610f94565b92915050565b600060208284031215610fd657610fd5610c1c565b5b6000610fe484828501610fab565b91505092915050565b7f746f6b656e20726573637565206661696c656400000000000000000000000000600082015250565b6000611023601383610e30565b915061102e82610fed565b602082019050919050565b6000602082019050818103600083015261105281611016565b9050919050565b7f7a65726f20616d6f756e74000000000000000000000000000000000000000000600082015250565b600061108f600b83610e30565b915061109a82611059565b602082019050919050565b600060208201905081810360008301526110be81611082565b9050919050565b7f4e487b7100000000000000000000000000000000000000000000000000000000600052601260045260246000fd5b7f4e487b7100000000000000000000000000000000000000000000000000000000600052601160045260246000fd5b600061112e82610c7f565b915061113983610c7f565b925082611149576111486110c5565b5b828204905092915050565b7f696e73756666696369656e74206e6174697665206c6971756964697479000000600082015250565b600061118a601d83610e30565b915061119582611154565b602082019050919050565b600060208201905081810360008301526111b98161117d565b9050919050565b7f6e6174697665207472616e73666572206661696c656400000000000000000000600082015250565b60006111f6601683610e30565b9150611201826111c0565b602082019050919050565b60006020820190508181036000830152611225816111e9565b9050919050565b60006040820190506112416000830185610d08565b61124e6020830184610d08565b9392505050565b7f6e6f206e61746976652073656e74000000000000000000000000000000000000600082015250565b600061128b600e83610e30565b915061129682611255565b602082019050919050565b600060208201905081810360008301526112ba8161127e565b9050919050565b60006112cc82610c7f565b91506112d783610c7f565b92508282026112e581610c7f565b915082820484148315176112fc576112fb6110f4565b5b5092915050565b60008151905061131281610c89565b92915050565b60006020828403121561132e5761132d610c1c565b5b600061133c84828501611303565b91505092915050565b7f696e73756666696369656e742042415a206c6971756964697479000000000000600082015250565b600061137b601a83610e30565b915061138682611345565b602082019050919050565b600060208201905081810360008301526113aa8161136e565b9050919050565b60006060820190506113c66000830186610d5f565b6113d36020830185610d5f565b6113e06040830184610d08565b94935050505056fea2646970667358221220b53c15a4c0d03cd26935295f06018262b5c8550faddbcc7be95a576afc994dc464736f6c634300081c0033",
  "linkReferences": {},
  "deployedLinkReferences": {},
  "immutableReferences": {
    "908": [
      {
        "length": 32,
        "start": 1220
      },
      {
        "length": 32,
        "start": 1710
      },
      {
        "length": 32,
        "start": 1934
      },
      {
        "length": 32,
        "start": 2095
      }
    ]
  },
  "inputSourceName": "project/contracts/Swap.sol",
  "buildInfoId": "solc-0_8_28-e07fc27bb260fc1da9e644e22e79484894550421"
}